:020000040800F2
:10000000400B00207D0100088501000887010008E1
:10001000890100088B0100088D0100080000000024
:100020000000000000000000000000008F01000838
:100030009101000800000000930100087111000800
:100040009701000897010008AD1F0008000000009C
:1000500000000000970100089701000897010008C0
:1000600097010008000000009701000897010008B0
:10007000970100080000000097010008ED12000839
:1000800049140008970100080000000097010008CB
:1000900097010008000000000000000000000000C0
:1000A00000000000000000000000000097010008B0
:1000B00097010008970100089701000897010008C0
:1000C00000F002F800F04AF80AA090E8000C824420
:1000D0008344AAF10107DA4501D100F03FF8AFF2FD
:1000E000090EBAE80F0013F0010F18BFFB1A43F016
:1000F00001031847C4300000E43000000A4410F83F
:10010000014B14F00F0508BF10F8015B240908BF6C
:1001100010F8014B6D1E05D010F8013B6D1E01F863
:10012000013BF9D1641E03D0641E01F8015BFBD1D1
:100130009142E4D3704700000023002400250026EC
:10014000103A28BF78C1FBD8520728BF30C148BF3A
:100150000B6070471FB51FBD10B510BD00F0A8F8AB
:100160001146FFF7F7FF02F0D9FC00F0C6F803B420
:10017000FFF7F2FF03BC00F0CDF80000094880470C
:1001800009480047FEE7FEE7FEE7FEE7FEE7FEE779
:10019000FEE7FEE7FEE7FEE704480549054A064B91
:1001A0007047000029120008C10000084005002027
:1001B000400B00204007002040070020032A40F2A7
:1001C000308010F0030C00F0158011F8013BBCF1F9
:1001D000020F624498BF11F801CB00F8013B38BF11
:1001E00011F8013BA2F1040298BF00F801CB38BF1F
:1001F00000F8013B11F0030300F02880083AC0F03A
:10020000088051F8043B083A51F804CBA0E80810E4
:10021000F5E7121D5CBF51F8043B40F8043BAFF317
:100220000080D20724BF11F8013B11F801CB48BF71
:1002300011F8012B24BF00F8013B00F801CB48BFA7
:1002400000F8012B704770477047704710B5203A8F
:10025000C0F00B80B1E81850203AA0E81850B1E87F
:100260001850A0E81850BFF4F5AF5FEA027C24BF35
:10027000B1E81850A0E8185044BF18C918C0BDE82C
:1002800010405FEA827C24BF51F8043B40F8043BF5
:1002900008BF7047D20728BF31F8023B48BF11F8AA
:1002A000012B28BF20F8023B48BF00F8012B704704
:1002B000754600F02BF8AE4605006946534620F01F
:1002C0000700854618B020B5FFF766FFBDE820405F
:1002D0004FF000064FF000074FF000084FF0000B02
:1002E00021F00701AC46ACE8C009ACE8C009ACE8B5
:1002F000C009ACE8C0098D46704710B50446AFF39D
:1003000000802046BDE81040FFF731BF004870472D
:10031000E004002001491820ABBEFEE726000200E1
:100320007047000010B5012000F03CFE00F058FEC0
:10033000012801D000BFFEE70221084600F0C2FDFF
:10034000012000F0B9FD00F0DDFD012801D000BF63
:10035000FEE7002000F0F6FD012000F0EDFD4FF477
:10036000807000F0FBFD00F015FF0121054800F052
:1003700051FE0121480300F04DFE4BF6803000F0A5
:10038000EFFE10BD0000E0230848406820F0200088
:10039000064948600846006920F0200008610846C8
:1003A000006940F4001008617047000000000C4034
:1003B0000A48406820F02000084948600846006963
:1003C00020F0200008610846006940F40010086130
:1003D0000846006800F020007047000000000C4054
:1003E0000548006820F0200003490860084640687E
:1003F00040F020004860704700000C40084840680A
:1004000020F04000064948600846006920F040009E
:1004100008610846006940F48000086170470000E8
:1004200000000C4010B50C48406820F040000A491C
:1004300048600846006920F04000086108460069ED
:1004400040F480000861012002F04CFB0248006883
:1004500000F0400010BD000000000C40054800689E
:1004600020F04000034908600846406840F0400022
:100470004860704700000C40704770471B48007888
:1004800000F0010030B11A48006840F0010018493E
:10049000086005E01648006820F001001449086073
:1004A0001248007800F0020030B11148006840F0B6
:1004B00002000F49086005E00D48006820F00200C6
:1004C0000B4908600948007800F0040030B1084882
:1004D000006840F004000649086005E00448006830
:1004E00020F0040002490860704700000A00002064
:1004F00000800A40034880780349085C034908707B
:100500000120704760000020010000204F00002003
:10051000024800780249087001207047000000205E
:100520004F00002010B504460F48C078012804D0C1
:1005300002280BD0032814D10AE0FFF79EFF0B48D6
:100540000B490A680260496841600AE0002010BD5A
:10055000FFF792FF054807490A6802604968416051
:1005600000BF00BF0120F2E7600000204F00002024
:1005700002000020120000200348C0780249897858
:10058000024A505401207047600000200100002002
:1005900002488078024908700120704760000020FE
:1005A0000000002010B50F48C078012804D00228B0
:1005B00004D0032812D10AE0002010BD0A480B49DC
:1005C0000A6802604968416000F0C9FD06E0084819
:1005D00006490968016000F0C1FD00BF00BF0020AE
:1005E000EBE70000600000200A0000204F00002020
:1005F000120000200EB5684600F08CFB0A20ADF812
:10060000000000208DF802008DF8080001208DF810
:100610000A0000208DF8040001208DF803008DF8F9
:10062000090069462B4800F04DFA0720ADF800009C
:1006300001208DF802006946274800F043FA102097
:10064000ADF8000000208DF8020003208DF80800AE
:1006500001208DF80A008DF8040000208DF80300B9
:1006600002208DF8090001208DF8070069461B481B
:1006700000F028FA0820ADF8000000208DF80200F4
:100680008DF8080001208DF80A008DF80400002084
:100690008DF8030002208DF8090069460F4800F02C
:1006A00011FA0320ADF8000000208DF802008DF84B
:1006B000080001208DF80A0000208DF804000120B8
:1006C0008DF8030002208DF809006946044800F007
:1006D000F9F90EBD00800C4000800A4000000B407C
:1006E00000800E404AF6AA200149086070470000C9
:1006F000008006404CF6CC400949086045F2555050
:1007000008600520486000BF0548C06800F001008F
:100710000028F9D140F63540014988607047000053
:100720000080064070B503460A4600240025012AD1
:1007300001D1102000E000200646184602F0E9F939
:100740003044C4B2184602F0E1F90546024800EB15
:10075000C400405D70BD0000CE00002011B1012931
:1007600042D120E0142805D1204A127822F001025B
:100770001E4B1A70122805D11C4A127822F0020270
:100780001A4B1A70112805D1184A127822F0040267
:10079000164B1A70592805D1144A127822F02002FB
:1007A000124B1A7020E01F2805D1104A127822F04F
:1007B00008020E4B1A70142805D10C4A127822F048
:1007C00010020A4B1A70112805D1084A127822F03B
:1007D0004002064B1A70272805D1044A127822F0ED
:1007E0008002024B1A7000BF00BF7047AB000020B0
:1007F00011B1012942D120E0142805D1204A1278F4
:1008000042F001021E4B1A70122805D11C4A1278C0
:1008100042F002021A4B1A70112805D1184A1278B8
:1008200042F00402164B1A70592805D1144A127866
:1008300042F02002124B1A7020E01F2805D1104A06
:10084000127842F008020E4B1A70142805D10C4A97
:10085000127842F010020A4B1A70112805D1084A8A
:10086000127842F04002064B1A70272805D1044A3C
:10087000127842F08002024B1A7000BF00BF70472E
:10088000AB000020F8B50024002600253C48B0F855
:10089000C800002872D03A4802F018FBFA2802D1AA
:1008A000374800F0EFFA364802F010FB00F008007D
:1008B000002863D000BF3248B0F8C8000028FAD042
:1008C0002F4802F003FBC4B2C4F30016C4F3401572
:1008D00004F007008DF80000294800F0D3FA00BFAB
:1008E0002748B0F8C8000028FAD0254802F0EEFAF0
:1008F000C0B28DF80100224800F0C4FA00BF2048C1
:10090000B0F8C8000028FAD01D4802F0DFFAC0B2E3
:100910008DF8020035B19DF80200C0F1FF008DF89E
:10092000020008E09DF8020028B19DF8020080F066
:10093000FF008DF80200124800F0A4FA00BF104832
:10094000B0F8C8000028FAD00D4802F0BFFAC0B2D3
:100950008DF803009DF803004042C0B28DF80300FB
:10096000074800F08FFA0020064908800649087001
:10097000022006490870064800990160F8BD000091
:100980004C030020C4000020C1000020A80000206B
:10099000AD00002010B5002400F084F84FF47A7008
:1009A00002F096F8FF2000F05DFB00BF00F0C0F9F8
:1009B000FA28FBD100BF00F0BBF9AA28FBD100F058
:1009C000B7F90446FF2000F04DFB00BF00F0B0F97E
:1009D000FA28FBD100BF00F0ABF9AA28FBD100F048
:1009E000A7F90446FF2000F03DFB00BF00F0A0F98E
:1009F000FA28FBD100BF00F09BF9AA28FBD100F038
:100A000097F90446F32000F02DFB00F091F904461D
:100A1000C82000F027FB00F08BF90446F32000F01B
:100A200021FB00F085F90446642000F01BFB00F078
:100A30007FF90446F32000F015FB00F079F9044635
:100A4000502000F00FFB00F073F90446F22000F094
:100A500009FB00F06DF9044600F06AF90446F42041
:100A600000F000FB00F064F9044610BD0B48C068BC
:100A700020F001000949C8600F2000280BDB00F0BE
:100A80001F0201219140064A430942F82310BFF397
:100A90004F8FBFF36F8F00BF70470000008007408B
:100AA00080E100E010B500F0F1F800F0DDFB10BDD2
:100AB0000021C1600161416001608160416181612B
:100AC000C16170472DE9FE4F4768D0F808C0D0F8E3
:100AD0000C80D0F81090D0F814A0CDF808A0D0F871
:100AE00018A0CDF804A0D0F81CA0CDF800A00022DA
:100AF000012303254FF001160C885FE004F0010A82
:100B0000BAF1000F55D027EA030A91F802B00BFAA8
:100B100002FB4AEA0B0791F808A04FEA420B0AFAD7
:100B20000BFA2CEA050B4AEA0B0C28EA030A91F8A7
:100B30000AB00BFA02FB4AEA0B0829EA060A91F806
:100B400003B002F1100E0BFA0EFB4AEA0B0A91F801
:100B500004B00BFA02FB4AEA0B09DDF808A02AEA06
:100B6000060A91F805B00BFA0EFB4AEA0B0A91F857
:100B700006B00BFA02FB4AEA0B0ACDF808A091F87E
:100B800009A04FEA420B0AFA0BFADDF804B02BEA8F
:100B9000050B4AEA0B0ACDF804A0DDF800A02AEA0A
:100BA000030A91F807B00BFA02FB4AEA0B0ACDF8E8
:100BB00000A05B00AD007600521C6408002C9DD1A3
:100BC000DFF8C4A0504502D14FF01F0A01E04FF0FA
:100BD000000A27EA0A0AC0F804A0DFF8ACA05045D2
:100BE00002D14FF01F0A01E04FF0000A2CEA0A0A76
:100BF000C0F808A0DFF890A0504502D14FF01F0ABE
:100C000001E04FF0000A28EA0A0AC0F80CA0DFF859
:100C100078A0504502D14FF01F0A01E04FF0000AC2
:100C200029EA0A0AC0F810A0DFF85CA0504502D1FA
:100C30004FF01F0B01E04FF0000BDDF808A02AEA8F
:100C40000B0AC0F814A0DFF840A0504502D14FF0C5
:100C50001F0B01E04FF0000BDDF804A02AEA0B0A9D
:100C6000C0F818A0DFF820A0504502D14FF01F0BAC
:100C700001E04FF0000BDDF800A02AEA0B0AC0F8F3
:100C80001CA0BDE8FE8F000000000C400EB56846B9
:100C900000F040F81E48FFF70BFF2020ADF80000E1
:100CA00000208DF8020003208DF8080001208DF847
:100CB0000A0000208DF8040001208DF803000220B6
:100CC0008DF8090000208DF8070001208DF806003E
:100CD00069460F48FFF7F6FE4020ADF800000020FF
:100CE0008DF802008DF8080001208DF80A00002020
:100CF0008DF8040001208DF8030002208DF8090012
:100D000001208DF8060069460148FFF7DBFE0EBDA5
:100D100000000C404FF6FF71018000218170C1700E
:100D2000017141718171C1710172417281727047AB
:100D300010B500BF0648B0F8C8000028FAD000205F
:100D400004490880024800F09DF80348007810BD6F
:100D50004C030020C4000020C100002070B50546EF
:100D600000240126FFF782FEFFF73AFBFFF746FB60
:100D7000962001F0B7FEFFF771FBFFF705FB00BF00
:100D800042F2107001F054FE00B966E000BF00248A
:100D90001DE00120A040284038B10EB9012000E03C
:100DA00000200646FFF72AFB01E0FFF757FB00BFD4
:100DB000642001F02DFE00B94FE000BF00BF6420A9
:100DC00001F036FE00B948E000BF601CC4B2082C38
:100DD000DFDB16B1FFF712FB01E0FFF73FFB00BFBF
:100DE000642001F015FE00B937E000BF00BF6420A9
:100DF00001F01EFE00B930E000BFFFF7FFFA00BFB0
:100E0000642001F035FE00B927E000BF00BF642078
:100E100001F00EFE00B920E000BF00BF642001F029
:100E2000F7FD00B919E000BF00BF642001F010FE1B
:100E300000B912E000BF00BF642001F0E9FD00B975
:100E40000BE000BF00BF642001F002FE00B904E027
:100E500000BFFFF727FE012070BD0020FCE7B0F8BF
:100E6000C820642A00D1704730F8C83F0288521C5D
:100E700020F8C82920F8131000BFF4E70021A0F8DB
:100E8000C81070470021B0F8C82002B9704700218F
:100E900005E04A1C30F8122020F81120491CB0F857
:100EA000C8208A4201DD6429F3DBB0F8C820521E55
:100EB000A0F8C82000BFE9E70149086070470000BA
:100EC0008800404210B502460C4BD86820F0030061
:100ED0001043D860586820F4706040EA01205860E0
:100EE000074B1B6843B10123054C241D23600023DD
:100EF000034C883CC4F88C3010BD00000000024058
:100F00008800404238B50020009000BF212000F04A
:100F10002FF805460098401C00900098B0F5C06F6F
:100F200001D2002DF2D0212000F022F808B10124D6
:100F300000E00024204638BD0149086070470000E9
:100F4000880140420146044AD06820F0F00040EA9F
:100F50000110D06070470000000002400146034AC3
:100F6000D06820F440700843D06070470000024011
:100F700010B5014601F0E003202B02D1074B1A689F
:100F800001E0074BDA6B01F01F040123A34013407B
:100F90000BB1012000E0002010BD00000000024065
:100FA00000800D400D49896821F003010B4A9160D2
:100FB000012802D002280ED106E00849896841F0D4
:100FC0000101064A916007E00449896841F0030184
:100FD000024A916000E000BF00BF7047000002407D
:100FE00038B50020009000BF2220FFF7C1FF054662
:100FF0000098401C00900098B0F5C06F01D2002D01
:10100000F2D02220FFF7B4FF08B1012400E0002451
:10101000204638BD29B1064AD2690243044BDA6141
:1010200004E0034AD2698243014BDA617047000051
:10103000000002400022002100BF0AE007480068CB
:1010400001238B40184018B1012088401043C2B2E0
:10105000491C0229F2DB0248805C704700800E4088
:10106000942F000810B504460848806820F480607A
:10107000064988600846806820F40060886000BFE8
:101080002046FFF76BFE0028FAD010BD00000C4090
:1010900070B500BF00BF00BFFFF7CCFF2849087044
:1010A00008460078B52148432649084490F8B040E6
:1010B00023480078B52148432249084490F8B150AC
:1010C0001F480078B52148431E49084490F8B26093
:1010D0001B480078B52250430A46811822461A4818
:1010E000FFF76CF816480078B5225043154A1044B3
:1010F00000F112012A461548FFF760F81048007801
:10110000B52250430F4A104400F1560132461048B0
:10111000FFF754F80A480078B521484309490844C4
:1011200090F8B3000B49087005480078B521484392
:101130000449084490F8B4000749087070BD0000E5
:101140006C000020982F0008D4010020E601002048
:101150002A0200203600002035000020704770472A
:101160004FF0E021486107214FF0E0221161704704
:101170000648006820B105480068401E0349086021
:1011800003480068401C0249086070478000002046
:101190008400002030B5204CE46804F00204022CE6
:1011A00001D11E4800E01E481B4CE46804F0010415
:1011B00004B140080146184CE46804F00404042C0F
:1011C00005D1154C6468C4F30324631C5943124CC5
:1011D000E468C4F3012424B1012C06D0022C13D1FD
:1011E0000DE00F4C0F4D2C6013E00B4CE468C4F382
:1011F0000314641CB1FBF4F20A4C226009E04FF4C2
:101200000044084D2C6004E049F64044054D2C6034
:1012100000BF00BF30BD0000000002400024F40009
:1012200000127A00D001002000B50D480D49C861B8
:101230000846C0680020C860084640680020486032
:101240000846806800208860084600690020086120
:101250000846406900204861FFF79CFF00BD000080
:10126000100000080000024010B500200D49C860C1
:1012700088650D48C06940F400400B49C8610846C4
:10128000406A40F0007048620648006D05490865F4
:101290000820886540F60100C8600F2001F006FCB8
:1012A00010BD0000008007400000024010B5002083
:1012B0000C49C86088650C48C06940F480300A4910
:1012C000C8610846406A40F0806048620548006D89
:1012D0000449086508208865C814C860102001F01A
:1012E000E5FB10BD000008400000024010B54E486C
:1012F000406D00F0080000287ED000204A49486573
:10130000FFF756F800B110BD48480078401C474927
:101310000870084600780C2874D2DFE800F07306E5
:101320000F101112131415162B4C4148006800F0D1
:10133000400010B100203D4908706FE000BF00BFC1
:1013400000BF00BF00BF00BF00BF3A480078401098
:10135000384908703648006800F0400048B1084637
:10136000007840F08000087033480078401C324913
:10137000087053E0FFF756F870B12F48007800F07E
:101380000100B8B900202949087001202A490870D5
:101390000020284908700DE02748007800F001007F
:1013A00040B1002021490870012023490870002025
:1013B0002049087032E01E48006800F0400040B943
:1013C00000201A49087001201B49087000201949A3
:1013D0000870184801781948FFF741FD1548007852
:1013E0001749087001201749088000200F4908702C
:1013F00001201149087001E011E003E000200D49CF
:1014000008700BE000200949087001200A490870A3
:101410000020084908700B49088000BF00BF0F205A
:1014200001F036FB00BF6EE700800740CD000020D2
:1014300000000C40CB000020CC0000204C0300201A
:10144000C1000020C400002010B54848406D00F0E5
:10145000080000287ED000204449486544480078B0
:10146000401C43490870084600780C2877D2DFE812
:1014700000F076060F101112131415162B4E3D486E
:10148000006800F0080010B100203949087067E0DA
:1014900000BF00BF00BF00BF00BF00BF00BF364895
:1014A00000784010344908703248006800F00800A5
:1014B00048B10846007840F0800008702F48007856
:1014C000401C2E4908704BE02A48006800F00800D4
:1014D00070B12A48007800F00100B8B90020244912
:1014E00008700120254908700020234908700DE08C
:1014F0002248007800F0010040B100201C4908702B
:1015000001201E49087000201B49087028E0194876
:10151000006800F0080048B9002015490870012053
:101520001649087000201449087019E01248017823
:101530001348FFF794FC1048007812490870002007
:101540000B49087001200D49087000200A490870F5
:10155000012001E005E002E00B49088000E000BF47
:1015600000BF102001F094FA10BD000000000840F8
:10157000CA00002000000B40C8000020C900002065
:1015800016040020C0000020C200002001460D4AC1
:10159000106940F480700A68104340F00400094A62
:1015A0001061506840F001004A6840EA0210054AA4
:1015B000506000BF034A126802F00102002AF9D00D
:1015C000704700000000024070477047704710B538
:1015D000044634B100F07EF800F090FD00F086F88B
:1015E00001E000F06BF810BD10B50C4880880828A9
:1015F00001DD082401E00948848808482246016882
:10160000802001F0A7F904460448006820440349FB
:10161000086008468088001B888010BD58000020A4
:1016200010B508480168002000F07CFD044605481C
:10163000006820440349086008468088001B8880B1
:1016400010BD00005800002070B504460D46164637
:10165000022C04D11DB9F0B200F0B2F970BD012026
:10166000FCE7000070B505460C462846FFF78EFFE4
:1016700001F076F84FF4803001F0E8F8206801F0CE
:10168000E5F8D4E90112114341F0010001F0F4F84A
:1016900000220521104600F0B3F9054A0549002053
:1016A00000F0A2FA002004490870886070BD0000B4
:1016B00019170008900000204003002010B54FF4D7
:1016C000002001F0C3F800200149087010BD00009F
:1016D0004003002010B50C2001F0B8F802200249A8
:1016E0000870002010BD00004003002003200249C4
:1016F00008700020704700004003002070B50446C9
:101700000D461646022C05D125B9F0B2012100F094
:10171000C7F970BD0120FCE72DE9F34F81B00C46FD
:101720004FF00008207800F0600A207800F0800078
:101730000090BAF1000F06D0BAF1200F77D0BAF1BD
:10174000400F75D103E14FF0000B6788A688B4F80D
:101750000690207800F01F05032D02DD4FF00208EF
:10176000FBE060780D2872D2DFE800F00740D0542B
:10177000D06A7275788B9DAEBC000098802809D124
:1017800078480078042808D1012D03D0022D04D117
:10179000042E02DB4FF0010827E04FF00008B8F1FB
:1017A000000F22D125B1012D06D0022D13D107E063
:1017B00000206D4908700EE000206B4908700AE0B7
:1017C00006EB460000EBC600684901EB800040785C
:1017D0006549087000BF00BF0020634948700023BE
:1017E0000222019800F07EF9804692E05D48007880
:1017F000042808D1012D03D0022D04D1042E02DBD0
:101800004FF0010805E0324639462846FFF71CFF35
:1018100080467EE05348007804280AD1012D03D089
:10182000022D06D1042E04DB4FF0010807E08BE007
:1018300090E0324639462846FFF760FF804668E070
:101840004FF0000847488760DFF824B161E05DE0B1
:101850004FF001085DE04FF001085AE04148007880
:10186000042803D100204049087002E001203E49CD
:101870000870002301223C49019800F033F98046AA
:1018800047E01FB90420374908700BE0012F01D051
:10189000012000E000208046B8F1000F02D10520B1
:1018A0003049087035E02F480078042802D14FF005
:1018B000010808E000202C4908700023012201984B
:1018C00000F010F9804624E026480078042802D170
:1018D0004FF0010805E006B90FB1012000E000203B
:1018E000804616E01F480078042802D14FF0010816
:1018F0000BE04FF00108B8F1000F06D100230222DF
:101900001949019800F0EEF8804602E04FF0020815
:1019100000BF00BFB8F1000F15D1B9F1000F12D10F
:10192000207800F08000802806D15B460022114616
:10193000019800F0FDF805E05B4600221146019891
:1019400000F0D0F8804608E04FF0010805E04FF0C5
:10195000010802E04FF0020800BF00BF4046BDE8AA
:10196000FE8F00004003002098000020900200201D
:101970007519000870B504460D4616460649886874
:1019800000F074FF0448806808B1042000E00320E0
:1019900001490870002070BD40030020704700001E
:1019A00000F00F01054A02EB0112126822F0010358
:1019B000024A02EB0112136070470000000101406F
:1019C00070B5064606EB460000EBC6000B4901EB7E
:1019D00080044FF40025607E08B9A07E20B101206C
:1019E000207045F0020501E00020207000206070AA
:1019F0002946304600F03EF8002070BD90020020DD
:101A00002DE9F04105460F46164605EB450000EB73
:101A1000C5000C4901EB8004002060600021A1603A
:101A20002161E1606161E06120626062A6626070D4
:101A3000207020763946284600F02EFF0020BDE8B1
:101A4000F08100009002002070B5054605EB4500CE
:101A500000EBC500054901EB8004002020702076D2
:101A60000349284600F018FF002070BD90020020B6
:101A70000100120070B504460D4604EB440000EB73
:101A8000C400064901EB80061F2000F03BFF002048
:101A900030762946204600F0FFFE70BD90020020FF
:101AA0002DE9F04105460C4605EB450000EBC5006D
:101AB0000B4901EB80060027012C03D115B9012049
:101AC000BDE8F081012C01D0B07E18B17470052002
:101AD00030700A2739462846FFF7CCFF0020EFE791
:101AE000900200202DE9F04705460E46174698461D
:101AF00005EB450000EBC5000C4901EB8004A07E1E
:101B000008B1022000E0012081466660A760202124
:101B100021610021E160C4F81C8002202070494648
:101B2000284600F023F80020BDE8F087900200204E
:101B30002DE9F04105460E461746984605EB45004F
:101B400000EBC500084901EB80046660A760002136
:101B50002161E160C4F82080012060762846FFF70B
:101B60002FFF0020BDE8F081900200202DE9F04118
:101B700006460F4606EB460000EBC600194901EB8E
:101B800080040121304600F0A5FE27B1012F03D0CB
:101B9000022F0AD104E008E0304600F039FE04E0EC
:101BA0000421304600F078FE00BF00BFD4E90310E6
:101BB0000144A068814203D2D4E90310084400E044
:101BC000A0688046E56805E06068415D304600F049
:101BD00079FE6D1C4545F7D302213046FFF74AFFD9
:101BE000BDE8F081900200202DE9F04106460F4645
:101BF000154606EB460000EBC6000A4901EB8004DF
:101C000067610021A1602161E16065620DB1012081
:101C100000E00020A0763046FFF7D2FE0020BDE8AD
:101C2000F081000090020020014601F00F00012326
:101C3000074A02EBC0121361054A02EBC01213659A
:101C40000323034A803A02EB00121360704700003E
:101C50008001014010B50446082C6FD2DFE804F083
:101C60006E04F5F46E6EF3F200F05AFEC449097882
:101C7000C809FFF793FEC248C088C2498880C0489F
:101C80000078C0F3411010B1012879D190E0BC4830
:101C900040780C2875D2DFE800F0060D8815881D05
:101CA000333A41555C8100F011FB00B9DCE0FFF7ED
:101CB0009BFC7BE0002000F069FB00B9D4E000F061
:101CC00037FE73E0012000F061FB00B9CCE000F0CA
:101CD0002FFE6BE000BFAA48007800F01F0030B96B
:101CE000A748807840F08000A749087001E00020F4
:101CF00001E000BF012000B9B6E000F019FE55E098
:101D000000F030FA00B9AFE0FFF76EFC4EE00020C3
:101D100000F0FEFD00209B49888047E000BF984806
:101D2000007800F01F0018B998489649086001E053
:101D3000002001E000BF012008B995E01EE1FFF797
:101D400053FC33E000F098FB00B98DE000F0F0FDAB
:101D50002CE000BF8A48007800F01F00012814D151
:101D60008A48007870B186480079894909788842A4
:101D700008DA83480079874908448249086003E00B
:101D800071E012E0002004E001E0002001E000BF6B
:101D9000012000B968E0FFF727FC07E000F048FCED
:101DA00000B961E000F0C4FD00E05DE000BF62E06A
:101DB0007348007800F01F0020B1012803D00228EA
:101DC0004FD14DE050E06E48007918B16C48007971
:101DD000012844D16A4840780C283FD2DFE800F05F
:101DE0003E0618293E3E3E3E3E122237644908799F
:101DF000FEF798FB28B1684862490860FFF7F4FBDA
:101E000030E02BE064485F49086000F091FD29E074
:101E1000FEF770FB28B160485A490860FFF7E4FB01
:101E200020E01BE0FEF7A8FB10B100F081FD19E0F7
:101E300014E0FEF76DFB48B1574852490860FFF7C0
:101E4000D3FB0FE096E091E06EE016E006E0FEF7CF
:101E50009FFB10B100F06CFD04E000BF00BF03E089
:101E600002E001E007E000BF802000F051FD00200B
:101E70004449888000BF00BF80E04848006800F007
:101E800010004749C1F8480128B14448006840F0B3
:101E90001000C1F848013A480078C00978BB3948B9
:101EA000808868B3FFF7BCFB3648808840BB344865
:101EB0000078C0F3411010B1012828D100E0D3E729
:101EC0002F48007800F01F0020B1012803D002281D
:101ED00019D117E0C8E72A48007918B128480079D5
:101EE00001280ED126484078092806D1FEF75AFB72
:101EF00010B100F01DFD09E000BF00BF04E008E0E4
:101F000009E0B1E7B0E7AFE700BF00BF00E0ABE733
:101F100001E000F015FD21484838006840F002005B
:101F20001F49C1F8000129E0154800780121B1EBF3
:101F3000D01F02D1FFF758FB17E01348007800F0DC
:101F4000800050B11048007800F07F000E49087002
:101F50000846007800F06AFC07E01048483800683E
:101F600040F002000E49C1F8000107E00020FFF731
:101F70002BFB03E08020FFF727FB00BF00BF10BD55
:101F800060000020580000203C0000203D000020A0
:101F90004C0000204D0000204F000020480101406F
:101FA00000000140704770477047000070B53F481F
:101FB000006800F0040050B100F006FC00F024FCC2
:101FC0003A48006840F004003949C1F848013748F0
:101FD000006800F00100002867D03448006840F035
:101FE00001003349C1F84801002411E02F48483866
:101FF00000EB0410006800F0010040B12B484838A5
:1020000000EB0410006800F0020000B902E0641C5C
:10201000022CEBD300BF26E02448483800EB041024
:10202000406800F0040078B10120FFF7BDFF1F48B1
:10203000483800EB0410406820F004011B48483881
:1020400000EB041041600EE00020FFF7ADFF1748E1
:10205000483800EB0410406820F00F01134848385E
:1020600000EB041041601148483800EB0410406850
:1020700000F00F000028CFD10C48483800EB0410C6
:10208000856825B90B4850F8241001208847022D97
:1020900004D1084850F8241002208847012D04D1AB
:1020A000044850F824100320884770BD48010140BF
:1020B00000000140542F000810B501210420FEF754
:1020C000A9FF03200B490860052048604FF48010E9
:1020D0000949886040004860402008600548FFF7D3
:1020E000C1FA1F2000F0FEFB00F008F8FFF7FEFA2F
:1020F00010BD00007400002084020020022000288F
:102100000DDB00BF00BF00F01F020121914042091A
:10211000920002F1E022C2F8001100BF00BF00BF30
:102120007047000070B504460A4604F00F030B4DDB
:1021300005EBC315E868002108E0084D05EBC31561
:102140002D685554555C064E3570491C8142F4D3B8
:102150000126024D05EBC3152E6170BD80010140C3
:102160007C00002010B54F48007800F01F0010B12F
:1021700001287DD139E04B48C078012804D00228DD
:1021800007D003282DD118E04748484C2060122280
:1021900029E04749002304E0087808B14888014451
:1021A0005B1C404880789842F6D1087808B9002036
:1021B00010BD3E4801604A8815E03E49002304E016
:1021C000087808B1087801445B1C3648807898424A
:1021D000F6D1087808B90020EAE7344801600A78A7
:1021E00001E00020E4E700BF52E02E48C07821283B
:1021F00004D022281AD0232844D141E0294800796C
:10220000022801DB0020D3E72648007920B92848BE
:102210001230264C2060092222480079012804D17E
:1022200023482B30214C206009222DE01D480079E5
:10223000022801DB0020BBE71F48007818B11E48C8
:102240000078022810D11748007920B91B48174C94
:1022500020601B48028813480079012804D11948DE
:10226000124C20601848028813480078012800E0CA
:102270000CE004D113480D4C20601348028803E0A1
:10228000002095E7002093E700BF01E000208FE7E2
:1022900000BF06488088904201D9044CA2800120EA
:1022A00086E7000060000020D401002058000020D4
:1022B000E60100202A0200206C000020D22E000837
:1022C000502F0008112F0008522F000827480078CF
:1022D00000F01F0020B1012806D0022841D116E0ED
:1022E0002348244B18603EE02348007860B11F4823
:1022F0000079224B1B78984206DA0020204B188088
:1023000018461C4B186001E0002070472BE017486E
:10231000007900F08F0101F0800028B101F00F0377
:102320004FF48030984001E0012088400246124876
:10233000007810B901F00F0080B912480068104011
:1023400060B111480068104008B1012000E0002091
:102350000B4B18801846074B186001E00020D4E7AB
:1023600001E00020D1E700BF0120CEE7600000209F
:102370003A000020580000203D0000204C000020C2
:102380004F000020400000204400002070B50646A9
:102390003348007800F01F0020B101281DD002282A
:1023A00058D11CE02E484088012813D146B100F0D6
:1023B000CFFA2C48008840F002002A4908800BE040
:1023C000002000F0C5FA2748008820F002002549C7
:1023D000088001E0002070BD3EE00020FBE72048BF
:1023E000007900F08F0404F0800028B104F00F01A0
:1023F0004FF48030884001E00120A04005461A4893
:10240000007820B304F00F0008B318480068284093
:10241000E8B113484088C0B946B1204600F078FAC8
:102420001348006828431249086012E01148006808
:10243000284008B10120CEE72046FFF7C5F80C4838
:102440000068A8430A49086003E00020C3E70020B1
:10245000C1E701E00020BEE700BF0120BBE70000AC
:10246000600000203A0000203D00002040000020D5
:1024700044000020480000202DE9F0410026634878
:10248000007800F01F0000287ED160488078002886
:102490007BD05F4D7EE06878022804D0042851D0BC
:1024A000052870D150E0687958498978884245D12B
:1024B0005648807857490870287957490870002491
:1024C00003E0002055490855641C022CF9D301246F
:1024D00014E00120A04052490968084010B120468C
:1024E000FFF75EFA4FF48030A0404D49096808407C
:1024F00018B144F08000FFF753FA641C102CE8D3A5
:102500004FF00110464908600020464908604649DE
:1025100008600120FFF75AF8E87900F0400030B178
:102520004248008840F001004049088009E03F48E7
:10253000008820F001003D49088002E068880544D9
:1025400028E020E0EE781EE0E6B9A87800F08F04DD
:1025500004F0800028B104F00F014FF4803088406F
:1025600001E00120A04007462D48006838432C496F
:1025700008602846FFF729F82046FFF755FB20465C
:1025800000F01CF900BF01E03AE008E000BF287845
:10259000054400BF287800287FF47DAF26E00020A6
:1025A0001C490870012414E00120A0401C4909685E
:1025B000084010B12046FFF7F3F94FF48030A040F7
:1025C00017490968084018B144F08000FFF7E8F99E
:1025D000641C102CE8D34FF0011011490860002052
:1025E0001049086010490860FEF7F0FF074880783E
:1025F00008490978884202D00020BDE8F08101E056
:102600000020FAE700BF0120F7E70000600000208B
:10261000E60100203D0000204C0000204D0000207D
:102620004000002044000020480000203A00002024
:102630002DE9F05F0027B846BB46B946424800780E
:1026400000F01F00012879D14048007810B900201F
:10265000BDE8F09F4FF0000A3D4C6AE06078022828
:1026600004D004280BD005285FD11EE060793749DB
:102670000978884202D0608804445AE055E0A7787F
:1026800094F803804FF000092F480079B8420BD12D
:102690002D488078404507D14FF0010A2D4810F8A9
:1026A00007B0014601F807803FE027480079B842AB
:1026B0003AD1A07800F08F0606F0800028B106F02D
:1026C0000F014FF48030884001E00120B040054602
:1026D0001D488078404515D11F48006828431E4991
:1026E00008601E480068A8431C4908602046FEF7A1
:1026F0006CFF3046FFF798FA304600F05FF849EA81
:10270000050911E0D8450FD109EA050060B9124862
:102710000068A8431049086010480068A8430F49A2
:1027200008603046FFF73CF900BF00BF2078044442
:1027300000BF2078002891D102E0FFE7002087E762
:1027400000BF504684E70000600000203D000020EC
:10275000E60100204D000020400000204400002041
:1027600000B5022000F072F8002300E05B1CB3F516
:102770007A7FFBD34FF4003000F068F800BD000012
:1027800000200849088008490870084908704FF07F
:1027900001100749086000200649086006490860E2
:1027A000704700003A0000203C0000203D0000205F
:1027B00040000020440000204800002010B50446DE
:1027C000E0B2FFF741F910BD10B51F200B490860BA
:1027D00005200B49C1F84C0101210848483001602F
:1027E0000648883001600320044948390860002009
:1027F00004498860886800F039F810BD480101403C
:10280000000001404003002010B5FFF7B9FF10BDE4
:10281000054A02EB0012116881F00401024A02EB42
:102820000012116070470000000101400549086076
:102830000549D1F8001141F00201024A503A1160F5
:1028400070470000500101400000014000BF054AF0
:10285000116882B2114321EA1041034AC2F8801381
:1028600000BF70478003014000000140014908603B
:10287000704700005001014000BF054A116882B254
:10288000114321EA1041034AC2F8401100BF7047CA
:10289000400101400000014010B500BF074C04EBAF
:1028A0000013D3F800218BB21A4322EA1142044BE1
:1028B00003EB00131A6000BF10BD000000000140D0
:1028C00000010140024A02EBC0121164704700008F
:1028D00080010140024A02EBC012116570470000FE
:1028E0008001014000BF054A116882B2114321EA0C
:1028F0001041034AC2F84C1100BF70474C0101401F
:102900000000014001490860704700004801014093
:1029100010B50446E0B20121FFF7C2F810BD000077
:1029200010B502490020FFF7FDFB10BD600000203C
:1029300010B500221146802000F00CF810BD0000F8
:1029400010B502490020FFF7EDFB10BD4F0000203D
:102950007047000070B504460D46134604F00F01A1
:1029600059B9294800EB0110806830B9012088402E
:10297000264E36783043254E307001208840234E55
:102980003678304088B1204800EB0110006840F0F4
:1029900004061D4800EB01100660012088401B4E14
:1029A000367886431948067010E0174800EB01108E
:1029B000006820F00406144800EB011006600120B6
:1029C0008840124E36783043104E307001260E4843
:1029D000803000EBC1100665002206E0AE5C0A48BC
:1029E000803000EBC1100664521C9A42F6D30648B0
:1029F00000EB0110006840F00206034800EB0110F4
:102A00000660184670BD0000000101407D000020F6
:102A100010B5044605E000BF012000F063F8601E19
:102A200084B2FDF7C5FC08B9002CF4D1E0B210BDAA
:102A300010B5044605E000BF012000F053F8601E09
:102A400084B2FDF7B5FC08B1002CF4D1E0B210BDA2
:102A500010B5044605E000BF012000F043F8601EF9
:102A600084B2FDF7DFFC08B9002CF4D1E0B210BD50
:102A700010B5044605E000BF012000F033F8601EE9
:102A800084B2FDF7CFFC08B1002CF4D1E0B210BD48
:102A9000002807DB00F01F0201219140024A430990
:102AA00042F823107047000080E200E000280DDBB0
:102AB00000BF00BF00F01F020121914042099200B7
:102AC00002F1E022C2F8001100BF00BF7047000011
:102AD0000349086000BF024909680029FBD170471B
:102AE00080000020074909784143074A116000BF70
:102AF00005490A680968491E034B1960002AF7D185
:102B000070470000880000208C000020014608115A
:102B10007047014601F00F0070470000FDF702FC0E
:102B2000FDF768FDFEF7B4FAFFF7C6FA0120FEF7DD
:102B30004EFD31480078022802D02F48007808B9AD
:102B4000FEF7B4FB00202D4908708870C87008712A
:102B50002B49087048708870C8702A48FEF78EF9B3
:102B60002948FEF78BF9FDF7C5FD234800780128B9
:102B700002D02148007808B9FDF70CFF3BE0FDF7D3
:102B800081FE2248007802280ED100201F490870DB
:102B900004221B491E480078FFF7DCFE184800217C
:102BA00001600A20FFF794FF00F040F81948007810
:102BB00002281CD11848007810490870174800787E
:102BC0008870082216480078FFF7C4FE0A20FFF735
:102BD0007FFF00200949087088700822104800789B
:102BE000FFF7B8FE00200F4908800F490870FDF775
:102BF00045FCFDF777FDC2E76C000020B100002026
:102C0000AD0000204C03002016040020A800002086
:102C100035000020A9000020AB000020AA00002001
:102C200036000020C2000020C000002010B50024A3
:102C300000208A4908708A48B0F8C80000B910BD61
:102C4000874800F043F9C4B2204600F00FF98548E8
:102C500000780E2871D2DFE800F0075C33667D89CA
:102C600095A1ADB9C5D7E1EB832C0CD0E02C02D0F7
:102C7000F02C12D103E002207A4908701EE00120F6
:102C8000784908701AE0402077490870002075499B
:102C9000087002207149087010E000212046FDF7FD
:102CA00041FD7149087000206E49087000212046DE
:102CB000FDF79EFD02206949087000BF00BFC7E014
:102CC000122C06D0592C05D07E2C07D0F02C0DD11B
:102CD00008E000BF00206349087018E00B2061493C
:102CE000087014E003205F49087010E001212046BD
:102CF000FDF718FD5C49087000205A490870012151
:102D00002046FDF775FD02205449087000BF00BF42
:102D10009EE000212046FDF721FD00205249087069
:102D20005049087094E0122C02D0592C06D100E0D2
:102D300000BF00204B4908700AE085E001212046D1
:102D4000FDF70CFD0020484908704649087000BF97
:102D500000BF7DE0142C03D105204249087003E038
:102D600000204049087000BF00BF71E0772C03D1FC
:102D700006203C49087003E000203A49087000BF73
:102D800000BF65E0E12C03D107203649087003E05D
:102D900000203449087000BF00BF59E0F02C03D177
:102DA00008203049087003E000202E49087000BF59
:102DB00000BF4DE0142C03D109202A49087003E01C
:102DC00000202849087000BF00BF41E0F02C03D16B
:102DD0000A202449087003E000202249087000BF3F
:102DE00000BF35E0772C09D148201F49087000202A
:102DF0001C49087002201949087003E00020194995
:102E0000087000BF00BF23E0E02C03D10C2015495F
:102E1000087002E000201349087019E0F02C03D17B
:102E20000D201049087002E000200E4908700FE0E4
:102E30007E2C05D148200C490870022007490870F3
:102E400000200849087003E000200649087000BF10
:102E500000BF0348FEF716F800BFF0E6A900002007
:102E600016040020B9000020AA00002070B5064614
:102E7000154C2546E02E02D0F02E10D100E021E0C6
:102E80003046FFF743FE28703046FFF742FE687079
:102E90000020A870A07920F0F000A07112E0304668
:102EA000FFF734FE28703046FFF733FE68700120CC
:102EB000A870A079012101EB1010A17960F307112E
:102EC000A17100BF00BF70BDA000002001460888AE
:102ED000704705010906A101050719E029E715005A
:102EE00025017501950881029501750881039505F5
:102EF00075010508190129059102950175039103D2
:102F000095067508150025650507190029658100D6
:102F1000C005010902A101050919012903150025B0
:102F2000019503750181029501750581030501096C
:102F300001A100093009311581257F7508950281AD
:102F400006C009381581257F750895018106C000E6
:102F50003F003E00551C0008A51F0008A71F0008E1
:102F60000000000000000000000000000000000061
:102F70000000000000000000000000000000000051
:102F80000000000000000000000000000000000041
:102F9000000000000001020012010002EF0201081F
:102FA00083044157000101020001090242000201AD
:102FB00000C03209040000010301010409211001CD
:102FC0000001223F000705810308000807050203EE
:102FD0000800080904010001030102000921100191
:102FE0000001223E000705830308000400000403DB
:102FF000090412032D004E005000500041004D0006
:1030000045002D0022032D004B0065007900620071
:103010006F0061007200640020004D006F007500B9
:10302000730065002D001A033000300030003100BD
:1030300041003000300030003000300030003000FF
:10304000080348004900440012445A8183120110C9
:10305000010000000858043A0000010102000109C3
:10306000022200010100C032090400000103010234
:1030700004092111010001223E0007058303080015
:103080000800000000000000000000000000000038
:103090000000000000000000000000000000000030
:1030A0000000000403090412032D004E00500050DC
:1030B0000041004D0045002D000C034D006F0075D0
:1030C00000730065001A0330003000300031004109
:1030D0000030003000300030003000300030000898
:1030E0000348004900440000000000000000000008
:1030F0000000000000000000000000000012224458
:1031000081831201100100000008EB03103100015F
:103110000102000109022900010100C03209040076
:10312000000103010104092111010001223F0007F0
:1031300005830308000807050203080008000000D3
:10314000000000000000000000000000000000007F
:1031500000000000000000000403090412032D0019
:103160004E005000500041004D0045002D0012035C
:103170004B006500790062006F006100720064001E
:103180001A033000300030003100410030003000C0
:1031900030003000300030003000080348004900A3
:1031A00044000000000000000000000000000000DB
:1031B000000012294A838300D83100080000002053
:1031C000D4010000FC00000878320008D40100207F
:1031D0006C09000038010008D10218090210090426
:1031E0005201838102410332019201376242E206B9
:1031F00011363F6300E11B050E34005A3E00070BF9
:103200000C285D3CE0080A122F2F5E3A14211C277F
:103210002E00603B1E202326742A2945625327393D
:10322000004443002C2B37E55957411D191038280D
:103230002F5B3F16090D0F305C563D0417183329DC
:103240005F552B1A152413313761351F22252D02A6
:103250001047644900E6824CA25162E4824FB252A8
:103260000214E7624D755458004E8250834A46A2BC
:083270004B93E36514127A0090
:04000005080000C12E
:00000001FF
